{
  "contractName": "contratoProjeto",
  "abi": [
    {
      "inputs": [
        {
          "internalType": "uint16",
          "name": "_projetoID",
          "type": "uint16"
        },
        {
          "internalType": "string",
          "name": "_projetoNome",
          "type": "string"
        },
        {
          "internalType": "address",
          "name": "_responsavel",
          "type": "address"
        },
        {
          "internalType": "uint256",
          "name": "_saldo",
          "type": "uint256"
        },
        {
          "internalType": "uint128",
          "name": "_meta",
          "type": "uint128"
        }
      ],
      "stateMutability": "nonpayable",
      "type": "constructor"
    },
    {
      "stateMutability": "payable",
      "type": "fallback"
    },
    {
      "inputs": [],
      "name": "projeto",
      "outputs": [
        {
          "internalType": "uint16",
          "name": "projetoID",
          "type": "uint16"
        },
        {
          "internalType": "string",
          "name": "projetoNome",
          "type": "string"
        },
        {
          "internalType": "address",
          "name": "responsavel",
          "type": "address"
        },
        {
          "internalType": "uint256",
          "name": "saldo",
          "type": "uint256"
        },
        {
          "internalType": "uint128",
          "name": "meta",
          "type": "uint128"
        },
        {
          "internalType": "enum StatusProjeto",
          "name": "status",
          "type": "uint8"
        }
      ],
      "stateMutability": "view",
      "type": "function"
    },
    {
      "stateMutability": "payable",
      "type": "receive"
    },
    {
      "inputs": [],
      "name": "projetoVer",
      "outputs": [
        {
          "components": [
            {
              "internalType": "uint16",
              "name": "projetoID",
              "type": "uint16"
            },
            {
              "internalType": "string",
              "name": "projetoNome",
              "type": "string"
            },
            {
              "internalType": "address",
              "name": "responsavel",
              "type": "address"
            },
            {
              "internalType": "uint256",
              "name": "saldo",
              "type": "uint256"
            },
            {
              "internalType": "uint128",
              "name": "meta",
              "type": "uint128"
            },
            {
              "internalType": "enum StatusProjeto",
              "name": "status",
              "type": "uint8"
            }
          ],
          "internalType": "struct Projeto",
          "name": "",
          "type": "tuple"
        }
      ],
      "stateMutability": "view",
      "type": "function"
    },
    {
      "inputs": [],
      "name": "projetoDoacoes",
      "outputs": [
        {
          "internalType": "address[]",
          "name": "",
          "type": "address[]"
        }
      ],
      "stateMutability": "view",
      "type": "function"
    },
    {
      "inputs": [],
      "name": "projetoValores",
      "outputs": [
        {
          "internalType": "uint256[]",
          "name": "",
          "type": "uint256[]"
        }
      ],
      "stateMutability": "view",
      "type": "function"
    },
    {
      "inputs": [
        {
          "internalType": "uint256",
          "name": "_doacao",
          "type": "uint256"
        },
        {
          "internalType": "address",
          "name": "_doador",
          "type": "address"
        }
      ],
      "name": "projetoUpdate",
      "outputs": [],
      "stateMutability": "nonpayable",
      "type": "function"
    },
    {
      "inputs": [],
      "name": "projetoFinalizar",
      "outputs": [],
      "stateMutability": "nonpayable",
      "type": "function"
    },
    {
      "inputs": [
        {
          "internalType": "address",
          "name": "_owner",
          "type": "address"
        }
      ],
      "name": "projetoSacar",
      "outputs": [],
      "stateMutability": "payable",
      "type": "function"
    }
  ],
  "bytecode": "0x60806040523480156200001157600080fd5b50604051620014d3380380620014d3833981810160405281019062000037919062000480565b846000800160006101000a81548161ffff021916908361ffff16021790555083600060010190805190602001906200007192919062000107565b5082600060020160006101000a81548173ffffffffffffffffffffffffffffffffffffffff021916908373ffffffffffffffffffffffffffffffffffffffff1602179055508160006003018190555080600060040160006101000a8154816fffffffffffffffffffffffffffffffff02191690836fffffffffffffffffffffffffffffffff16021790555050505050506200058c565b828054620001159062000556565b90600052602060002090601f01602090048101928262000139576000855562000185565b82601f106200015457805160ff191683800117855562000185565b8280016001018555821562000185579182015b828111156200018457825182559160200191906001019062000167565b5b50905062000194919062000198565b5090565b5b80821115620001b357600081600090555060010162000199565b5090565b6000604051905090565b600080fd5b600080fd5b600061ffff82169050919050565b620001e481620001cb565b8114620001f057600080fd5b50565b6000815190506200020481620001d9565b92915050565b600080fd5b600080fd5b6000601f19601f8301169050919050565b7f4e487b7100000000000000000000000000000000000000000000000000000000600052604160045260246000fd5b6200025f8262000214565b810181811067ffffffffffffffff8211171562000281576200028062000225565b5b80604052505050565b600062000296620001b7565b9050620002a4828262000254565b919050565b600067ffffffffffffffff821115620002c757620002c662000225565b5b620002d28262000214565b9050602081019050919050565b60005b83811015620002ff578082015181840152602081019050620002e2565b838111156200030f576000848401525b50505050565b60006200032c6200032684620002a9565b6200028a565b9050828152602081018484840111156200034b576200034a6200020f565b5b62000358848285620002df565b509392505050565b600082601f8301126200037857620003776200020a565b5b81516200038a84826020860162000315565b91505092915050565b600073ffffffffffffffffffffffffffffffffffffffff82169050919050565b6000620003c08262000393565b9050919050565b620003d281620003b3565b8114620003de57600080fd5b50565b600081519050620003f281620003c7565b92915050565b6000819050919050565b6200040d81620003f8565b81146200041957600080fd5b50565b6000815190506200042d8162000402565b92915050565b60006fffffffffffffffffffffffffffffffff82169050919050565b6200045a8162000433565b81146200046657600080fd5b50565b6000815190506200047a816200044f565b92915050565b600080600080600060a086880312156200049f576200049e620001c1565b5b6000620004af88828901620001f3565b955050602086015167ffffffffffffffff811115620004d357620004d2620001c6565b5b620004e18882890162000360565b9450506040620004f488828901620003e1565b935050606062000507888289016200041c565b92505060806200051a8882890162000469565b9150509295509295909350565b7f4e487b7100000000000000000000000000000000000000000000000000000000600052602260045260246000fd5b600060028204905060018216806200056f57607f821691505b6020821081141562000586576200058562000527565b5b50919050565b610f37806200059c6000396000f3fe6080604052600436106100745760003560e01c806358be6cd31161004e57806358be6cd3146100ef578063d11d6b9514610118578063e41d7f1114610143578063f39b448d1461015f5761007b565b80631b822f721461007d5780634dc8217b146100a857806355a4cadc146100bf5761007b565b3661007b57005b005b34801561008957600080fd5b5061009261018a565b60405161009f91906108f0565b60405180910390f35b3480156100b457600080fd5b506100bd6101e2565b005b3480156100cb57600080fd5b506100d4610256565b6040516100e696959493929190610aba565b60405180910390f35b3480156100fb57600080fd5b5061011660048036038101906101119190610b7f565b61035f565b005b34801561012457600080fd5b5061012d6103f9565b60405161013a9190610cce565b60405180910390f35b61015d60048036038101906101589190610cf0565b6105aa565b005b34801561016b57600080fd5b50610174610726565b6040516101819190610dcc565b60405180910390f35b606060068054806020026020016040519081016040528092919081815260200182805480156101d857602002820191906000526020600020905b8154815260200190600101908083116101c4575b5050505050905090565b60008060040160109054906101000a900460ff16600181111561020857610207610a43565b5b81600181111561021b5761021a610a43565b5b1461022557600080fd5b6001600060040160106101000a81548160ff0219169083600181111561024e5761024d610a43565b5b021790555050565b60008060000160009054906101000a900461ffff169080600101805461027b90610e1d565b80601f01602080910402602001604051908101604052809291908181526020018280546102a790610e1d565b80156102f45780601f106102c9576101008083540402835291602001916102f4565b820191906000526020600020905b8154815290600101906020018083116102d757829003601f168201915b5050505050908060020160009054906101000a900473ffffffffffffffffffffffffffffffffffffffff16908060030154908060040160009054906101000a90046fffffffffffffffffffffffffffffffff16908060040160109054906101000a900460ff16905086565b476000600301819055506005819080600181540180825580915050600190039060005260206000200160009091909190916101000a81548173ffffffffffffffffffffffffffffffffffffffff021916908373ffffffffffffffffffffffffffffffffffffffff16021790555060068290806001815401808255809150506001900390600052602060002001600090919091909150555050565b6104016107b4565b60006040518060c00160405290816000820160009054906101000a900461ffff1661ffff1661ffff16815260200160018201805461043e90610e1d565b80601f016020809104026020016040519081016040528092919081815260200182805461046a90610e1d565b80156104b75780601f1061048c576101008083540402835291602001916104b7565b820191906000526020600020905b81548152906001019060200180831161049a57829003601f168201915b505050505081526020016002820160009054906101000a900473ffffffffffffffffffffffffffffffffffffffff1673ffffffffffffffffffffffffffffffffffffffff1673ffffffffffffffffffffffffffffffffffffffff168152602001600382015481526020016004820160009054906101000a90046fffffffffffffffffffffffffffffffff166fffffffffffffffffffffffffffffffff166fffffffffffffffffffffffffffffffff1681526020016004820160109054906101000a900460ff16600181111561058f5761058e610a43565b5b60018111156105a1576105a0610a43565b5b81525050905090565b80600060020160009054906101000a900473ffffffffffffffffffffffffffffffffffffffff1673ffffffffffffffffffffffffffffffffffffffff168173ffffffffffffffffffffffffffffffffffffffff161461063e576040517f08c379a000000000000000000000000000000000000000000000000000000000815260040161063590610e9b565b60405180910390fd5b6001600060040160109054906101000a900460ff16600181111561066557610664610a43565b5b81600181111561067857610677610a43565b5b1461068257600080fd5b600080600060020160009054906101000a900473ffffffffffffffffffffffffffffffffffffffff1673ffffffffffffffffffffffffffffffffffffffff16476040516106ce90610eec565b60006040518083038185875af1925050503d806000811461070b576040519150601f19603f3d011682016040523d82523d6000602084013e610710565b606091505b5091509150476000600301819055505050505050565b606060058054806020026020016040519081016040528092919081815260200182805480156107aa57602002820191906000526020600020905b8160009054906101000a900473ffffffffffffffffffffffffffffffffffffffff1673ffffffffffffffffffffffffffffffffffffffff1681526020019060010190808311610760575b5050505050905090565b6040518060c00160405280600061ffff16815260200160608152602001600073ffffffffffffffffffffffffffffffffffffffff1681526020016000815260200160006fffffffffffffffffffffffffffffffff1681526020016000600181111561082257610821610a43565b5b81525090565b600081519050919050565b600082825260208201905092915050565b6000819050602082019050919050565b6000819050919050565b61086781610854565b82525050565b6000610879838361085e565b60208301905092915050565b6000602082019050919050565b600061089d82610828565b6108a78185610833565b93506108b283610844565b8060005b838110156108e35781516108ca888261086d565b97506108d583610885565b9250506001810190506108b6565b5085935050505092915050565b6000602082019050818103600083015261090a8184610892565b905092915050565b600061ffff82169050919050565b61092981610912565b82525050565b600081519050919050565b600082825260208201905092915050565b60005b8381101561096957808201518184015260208101905061094e565b83811115610978576000848401525b50505050565b6000601f19601f8301169050919050565b600061099a8261092f565b6109a4818561093a565b93506109b481856020860161094b565b6109bd8161097e565b840191505092915050565b600073ffffffffffffffffffffffffffffffffffffffff82169050919050565b60006109f3826109c8565b9050919050565b610a03816109e8565b82525050565b610a1281610854565b82525050565b60006fffffffffffffffffffffffffffffffff82169050919050565b610a3d81610a18565b82525050565b7f4e487b7100000000000000000000000000000000000000000000000000000000600052602160045260246000fd5b60028110610a8357610a82610a43565b5b50565b6000819050610a9482610a72565b919050565b6000610aa482610a86565b9050919050565b610ab481610a99565b82525050565b600060c082019050610acf6000830189610920565b8181036020830152610ae1818861098f565b9050610af060408301876109fa565b610afd6060830186610a09565b610b0a6080830185610a34565b610b1760a0830184610aab565b979650505050505050565b600080fd5b610b3081610854565b8114610b3b57600080fd5b50565b600081359050610b4d81610b27565b92915050565b610b5c816109e8565b8114610b6757600080fd5b50565b600081359050610b7981610b53565b92915050565b60008060408385031215610b9657610b95610b22565b5b6000610ba485828601610b3e565b9250506020610bb585828601610b6a565b9150509250929050565b610bc881610912565b82525050565b600082825260208201905092915050565b6000610bea8261092f565b610bf48185610bce565b9350610c0481856020860161094b565b610c0d8161097e565b840191505092915050565b610c21816109e8565b82525050565b610c3081610a18565b82525050565b610c3f81610a99565b82525050565b600060c083016000830151610c5d6000860182610bbf565b5060208301518482036020860152610c758282610bdf565b9150506040830151610c8a6040860182610c18565b506060830151610c9d606086018261085e565b506080830151610cb06080860182610c27565b5060a0830151610cc360a0860182610c36565b508091505092915050565b60006020820190508181036000830152610ce88184610c45565b905092915050565b600060208284031215610d0657610d05610b22565b5b6000610d1484828501610b6a565b91505092915050565b600081519050919050565b600082825260208201905092915050565b6000819050602082019050919050565b6000610d558383610c18565b60208301905092915050565b6000602082019050919050565b6000610d7982610d1d565b610d838185610d28565b9350610d8e83610d39565b8060005b83811015610dbf578151610da68882610d49565b9750610db183610d61565b925050600181019050610d92565b5085935050505092915050565b60006020820190508181036000830152610de68184610d6e565b905092915050565b7f4e487b7100000000000000000000000000000000000000000000000000000000600052602260045260246000fd5b60006002820490506001821680610e3557607f821691505b60208210811415610e4957610e48610dee565b5b50919050565b7f4e6f7420617574686f72697a6564000000000000000000000000000000000000600082015250565b6000610e85600e8361093a565b9150610e9082610e4f565b602082019050919050565b60006020820190508181036000830152610eb481610e78565b9050919050565b600081905092915050565b50565b6000610ed6600083610ebb565b9150610ee182610ec6565b600082019050919050565b6000610ef782610ec9565b915081905091905056fea2646970667358221220b3ba7d6fbaf76a6f912386218199a3f198d5369fabf3afcbdbc14bfffb0b8b5a64736f6c634300080b0033",
  "immutableReferences": {},
  "source": "// SPDX-License-Identifier: GPL-3.0\n\npragma solidity >=0.7.0 <0.9.0;\n\n//Deixar uma variavel constante fora de escopo dos contratos\n//permite ela ser acessivel a todos os contratos.\nstruct Projeto {\n  uint16 projetoID;\n  string projetoNome;\n  address responsavel;\n  uint256 saldo;\n  uint128 meta;\n  StatusProjeto status;\n}\n\nenum StatusProjeto {Aberto, Finalizado}\n\ncontract Donation {\n\n  uint16 ongsNumero;\n  mapping(address => ONG) ongs;\n  ONG[] public ongsLista;\n\n  StatusProjeto public statusProjeto;\n\n  modifier onlyStatus(StatusProjeto statusEsperado){ \n    if(statusEsperado == statusProjeto){_;} \n    else {revert(\"Ola\");}\n  }\n\n//  modifier onlyOwner(address _address){\n//    ONG memory o = ongs[msg.sender];\n//  }\n\n  struct ONG {\n    address owner;\n    string ongNome;\n    uint256 ongSaldo;\n    uint16 ongID;\n    uint16 projetosNumero;\n    contratoProjeto[] contratos;\n  }\n\n  function criarONG(string memory _ongNome) public  {\n    ONG storage o = ongs[msg.sender];\n    o.owner = msg.sender;\n    o.ongNome = _ongNome;\n    o.ongID = ongsNumero;\n    ongsNumero++;\n    o.ongSaldo = 0;\n    ongsLista.push(o);\n   }\n\n  function criarProjeto(string memory _projetoNome, uint128 _meta) public {   \n    //Throw revert automatically if caller hasn't an ONG\n    ONG storage o = ongs[msg.sender];\n    //Cheack Why this is no updating\n    o.projetosNumero++;\n    contratoProjeto novoProjeto = new contratoProjeto(o.projetosNumero, _projetoNome, msg.sender, 0, _meta);\n    o.contratos.push(novoProjeto);   \n   }\n\n    //function mudarResponsavel(address _novoResponsavel) public {\n    //IMPLEMENT LATER\n    //The easist and cheapest way of doing it is allowing only the ONG.owner to be\n    //changed, instead of looping through all the projects to change the owner.\n    //Thus, the project's owner will continue to be the old one, but the withdraw is\n    //only doable from the ONG.owner\n    //ONG storage o = ongs[msg.sender];\n    //o.owner = _novoResponsavel;\n    //}\n\n  function fazerDoacao(address _ongOwner, uint16 _projetoID) public payable {\n    //The project's address is dependent on the ONGs address and the projectID \n    ONG memory o = ongs[_ongOwner];\n    //Check if contract is finalizado, then revert if so!\n    (,,,,,StatusProjeto status) = o.contratos[_projetoID].projeto();\n    if(status != StatusProjeto.Aberto){revert(\"Projeto finalizado\");}\n    //https://solidity-by-example.org/sending-ether/\n    (bool sent, bytes memory data) = payable(address(o.contratos[_projetoID])).call{value: msg.value}(\"\");\n    o.contratos[_projetoID].projetoUpdate(msg.value, msg.sender);\n  }\n\n  function finalizarProjeto(uint16 _projetoID) public {\n    //Impossibilaremos de alguem usar este contrato para depositar no outro.\n    //Mas ainda sim o contrato permancera ativo, podendo receber transferencias\n    //diretamente. Nao apagaremos o endereco do contrato da lista de ONGs, pois \n    //alguem pode mandar ETH para o contrato 0x0...00.\n    ONG memory o = ongs[msg.sender];\n    o.contratos[_projetoID].projetoFinalizar();    \n  }\n\n  function sacarSaldo (uint16 _projetoID) public payable{\n    ONG memory o = ongs[msg.sender];\n    o.contratos[_projetoID].projetoSacar(msg.sender);   \n  }\n\n  function verONGs() public view returns(ONG[] memory) {\n    return ongsLista;\n  }\n\n  function verProjetos(address _address) public view returns(contratoProjeto[] memory){\n    ONG memory o = ongs[_address];\n    return o.contratos;\n  }\n\n  function verProjeto(address _address, uint16 _id) public view returns(Projeto memory ){\n    ONG memory o = ongs[_address];\n    Projeto memory con = o.contratos[_id].projetoVer();\n    return con;\n  }\n\n  function verDoadores(address _address, uint16 _id) public view returns(address[] memory ){\n    ONG memory o = ongs[_address];\n    address[] memory con = o.contratos[_id].projetoDoacoes();\n    return con;\n  }  \n\n  function verValores(address _address, uint16 _id) public view returns(uint256[] memory ){\n    ONG memory o = ongs[_address];\n    uint256[] memory con = o.contratos[_id].projetoValores();\n    return con;\n  }\n\n  function getBalance() public view returns (uint256) {\n    return address(this).balance;\n  }\n  \n  // function verProjetoOwner(){} \n\n}\n\ncontract contratoProjeto {\n  Projeto public projeto;\n  address[] doadores;\n  uint256[] valores;\n\n//  StatusProjeto projetoStatus;\n\n  modifier onlyOwner(address _owner){\n    require(_owner == projeto.responsavel, \"Not authorized\");\n    _;\n  }\n\n  modifier onlyStatus(StatusProjeto statusEsperado){ \n    require(statusEsperado == projeto.status);\n    _;     \n  }\n\n  constructor (\n    uint16 _projetoID, \n    string memory _projetoNome, \n    address _responsavel,\n    uint256 _saldo,\n    uint128 _meta\n    ){\n    projeto.projetoID = _projetoID;\n    projeto.projetoNome = _projetoNome;\n    projeto.responsavel = _responsavel;\n    projeto.saldo = _saldo;\n    projeto.meta = _meta;\n//    projetoStatus = StatusProjeto.Aberto;\n    }  \n  \n    function projetoVer() public view returns(Projeto memory) {\n      return projeto;\n    }\n\n    function projetoDoacoes() public view returns(address[] memory){\n      return doadores;\n    }\n\n    function projetoValores() public view returns(uint256[] memory){\n      return valores;\n    }\n\n    function projetoUpdate(uint256 _doacao, address _doador) public {\n      projeto.saldo = address(this).balance;\n      doadores.push(_doador);\n      valores.push(_doacao);\n    }\n\n    function projetoFinalizar() onlyStatus(StatusProjeto.Aberto) public {\n      projeto.status = StatusProjeto.Finalizado;\n    } \n\n    function projetoSacar(address _owner) onlyOwner(_owner) onlyStatus(StatusProjeto.Finalizado) public payable{\n    //Devemos restringir essa funcao? Pois, alguem pode doar depositar\n    //depois que o projeto estiver finalizado, mas tabem o dono pode sacar\n    //a qualquer momento\n      (bool sent, bytes memory data) = payable(projeto.responsavel).call{value: address(this).balance}(\"\");     \n      projeto.saldo = address(this).balance;\n    }\n\n    //https://solidity-by-example.org/sending-ether/\n    receive() external payable {}\n\n    //https://solidity-by-example.org/sending-ether/\n    fallback() external payable {}\n\n  }\n\n",
  "sourcePath": "/home/caiosa/ongs/truffle_area/contracts/Donation.sol",
  "compiler": {
    "name": "solc",
    "version": "0.8.11+commit.d7f03943.Emscripten.clang"
  },
  "schemaVersion": "3.4.4",
  "updatedAt": "2022-01-27T20:17:21.131Z",
  "devdoc": {
    "kind": "dev",
    "methods": {},
    "version": 1
  },
  "userdoc": {
    "kind": "user",
    "methods": {},
    "version": 1
  }
}