{
  "contractName": "Donation",
  "abi": [
    {
      "inputs": [
        {
          "internalType": "uint256",
          "name": "",
          "type": "uint256"
        }
      ],
      "name": "ongsLista",
      "outputs": [
        {
          "internalType": "address",
          "name": "owner",
          "type": "address"
        },
        {
          "internalType": "string",
          "name": "ongNome",
          "type": "string"
        },
        {
          "internalType": "uint256",
          "name": "ongSaldo",
          "type": "uint256"
        },
        {
          "internalType": "uint16",
          "name": "ongID",
          "type": "uint16"
        },
        {
          "internalType": "uint16",
          "name": "projetosNumero",
          "type": "uint16"
        }
      ],
      "stateMutability": "view",
      "type": "function",
      "constant": true
    },
    {
      "inputs": [],
      "name": "statusProjeto",
      "outputs": [
        {
          "internalType": "enum StatusProjeto",
          "name": "",
          "type": "uint8"
        }
      ],
      "stateMutability": "view",
      "type": "function",
      "constant": true
    },
    {
      "inputs": [
        {
          "internalType": "string",
          "name": "_ongNome",
          "type": "string"
        }
      ],
      "name": "criarONG",
      "outputs": [],
      "stateMutability": "nonpayable",
      "type": "function"
    },
    {
      "inputs": [
        {
          "internalType": "string",
          "name": "_projetoNome",
          "type": "string"
        },
        {
          "internalType": "uint128",
          "name": "_meta",
          "type": "uint128"
        }
      ],
      "name": "criarProjeto",
      "outputs": [],
      "stateMutability": "nonpayable",
      "type": "function"
    },
    {
      "inputs": [
        {
          "internalType": "address",
          "name": "_ongOwner",
          "type": "address"
        },
        {
          "internalType": "uint16",
          "name": "_projetoID",
          "type": "uint16"
        }
      ],
      "name": "fazerDoacao",
      "outputs": [],
      "stateMutability": "payable",
      "type": "function",
      "payable": true
    },
    {
      "inputs": [
        {
          "internalType": "uint16",
          "name": "_projetoID",
          "type": "uint16"
        }
      ],
      "name": "finalizarProjeto",
      "outputs": [],
      "stateMutability": "nonpayable",
      "type": "function"
    },
    {
      "inputs": [
        {
          "internalType": "uint16",
          "name": "_projetoID",
          "type": "uint16"
        }
      ],
      "name": "sacarSaldo",
      "outputs": [],
      "stateMutability": "payable",
      "type": "function",
      "payable": true
    },
    {
      "inputs": [],
      "name": "verONGs",
      "outputs": [
        {
          "components": [
            {
              "internalType": "address",
              "name": "owner",
              "type": "address"
            },
            {
              "internalType": "string",
              "name": "ongNome",
              "type": "string"
            },
            {
              "internalType": "uint256",
              "name": "ongSaldo",
              "type": "uint256"
            },
            {
              "internalType": "uint16",
              "name": "ongID",
              "type": "uint16"
            },
            {
              "internalType": "uint16",
              "name": "projetosNumero",
              "type": "uint16"
            },
            {
              "internalType": "contract contratoProjeto[]",
              "name": "contratos",
              "type": "address[]"
            }
          ],
          "internalType": "struct Donation.ONG[]",
          "name": "",
          "type": "tuple[]"
        }
      ],
      "stateMutability": "view",
      "type": "function",
      "constant": true
    },
    {
      "inputs": [
        {
          "internalType": "address",
          "name": "_address",
          "type": "address"
        }
      ],
      "name": "verProjetos",
      "outputs": [
        {
          "internalType": "contract contratoProjeto[]",
          "name": "",
          "type": "address[]"
        }
      ],
      "stateMutability": "view",
      "type": "function",
      "constant": true
    },
    {
      "inputs": [
        {
          "internalType": "address",
          "name": "_address",
          "type": "address"
        },
        {
          "internalType": "uint16",
          "name": "_id",
          "type": "uint16"
        }
      ],
      "name": "verProjeto",
      "outputs": [
        {
          "components": [
            {
              "internalType": "uint16",
              "name": "projetoID",
              "type": "uint16"
            },
            {
              "internalType": "string",
              "name": "projetoNome",
              "type": "string"
            },
            {
              "internalType": "address",
              "name": "responsavel",
              "type": "address"
            },
            {
              "internalType": "uint256",
              "name": "saldo",
              "type": "uint256"
            },
            {
              "internalType": "uint128",
              "name": "meta",
              "type": "uint128"
            },
            {
              "internalType": "enum StatusProjeto",
              "name": "status",
              "type": "uint8"
            }
          ],
          "internalType": "struct Projeto",
          "name": "",
          "type": "tuple"
        }
      ],
      "stateMutability": "view",
      "type": "function",
      "constant": true
    },
    {
      "inputs": [
        {
          "internalType": "address",
          "name": "_address",
          "type": "address"
        },
        {
          "internalType": "uint16",
          "name": "_id",
          "type": "uint16"
        }
      ],
      "name": "verDoadores",
      "outputs": [
        {
          "internalType": "address[]",
          "name": "",
          "type": "address[]"
        }
      ],
      "stateMutability": "view",
      "type": "function",
      "constant": true
    },
    {
      "inputs": [
        {
          "internalType": "address",
          "name": "_address",
          "type": "address"
        },
        {
          "internalType": "uint16",
          "name": "_id",
          "type": "uint16"
        }
      ],
      "name": "verValores",
      "outputs": [
        {
          "internalType": "uint256[]",
          "name": "",
          "type": "uint256[]"
        }
      ],
      "stateMutability": "view",
      "type": "function",
      "constant": true
    },
    {
      "inputs": [],
      "name": "getBalance",
      "outputs": [
        {
          "internalType": "uint256",
          "name": "",
          "type": "uint256"
        }
      ],
      "stateMutability": "view",
      "type": "function",
      "constant": true
    }
  ],
  "bytecode": "0x608060405234801561001057600080fd5b50614a60806100206000396000f3fe608060405260043610620000d45760003560e01c8063507b8d3c116200008b578063aa619cb41162000061578063aa619cb414620002a1578063b407abcd14620002cf578063cd1861c01462000313578063f5611817146200035b57620000d4565b8063507b8d3c146200022357806386e4a9a1146200025357806390fa6a4c146200028157620000d4565b806312065fe014620000d957806316ba88a614620001095780632aa9a6fc146200014d578063322f008d146200016d57806332d21f7614620001b15780634d202a1814620001df575b600080fd5b348015620000e657600080fd5b50620000f16200038b565b604051620001009190620020f1565b60405180910390f35b3480156200011657600080fd5b506200013560048036038101906200012f919062002187565b62000393565b604051620001449190620022e1565b60405180910390f35b6200016b600480360381019062000165919062002344565b620005ba565b005b3480156200017a57600080fd5b5062000199600480360381019062000193919062002376565b6200086a565b604051620001a891906200248b565b60405180910390f35b348015620001be57600080fd5b50620001dd6004803603810190620001d7919062002344565b62000b2f565b005b348015620001ec57600080fd5b506200020b600480360381019062000205919062002376565b62000dd2565b6040516200021a9190620026b7565b60405180910390f35b3480156200023057600080fd5b506200023b6200109f565b6040516200024a9190620026ec565b60405180910390f35b3480156200026057600080fd5b506200027f60048036038101906200027991906200288b565b620010b2565b005b6200029f600480360381019062000299919062002376565b620011f7565b005b348015620002ae57600080fd5b50620002cd6004803603810190620002c79190620028f1565b62001659565b005b348015620002dc57600080fd5b50620002fb6004803603810190620002f5919062002376565b620018af565b6040516200030a9190620029ff565b60405180910390f35b3480156200032057600080fd5b506200033f600480360381019062000339919062002a54565b62001b74565b6040516200035295949392919062002afa565b60405180910390f35b3480156200036857600080fd5b506200037362001c87565b60405162000382919062002d45565b60405180910390f35b600047905090565b60606000600160008473ffffffffffffffffffffffffffffffffffffffff1673ffffffffffffffffffffffffffffffffffffffff1681526020019081526020016000206040518060c00160405290816000820160009054906101000a900473ffffffffffffffffffffffffffffffffffffffff1673ffffffffffffffffffffffffffffffffffffffff1673ffffffffffffffffffffffffffffffffffffffff168152602001600182018054620004499062002d98565b80601f0160208091040260200160405190810160405280929190818152602001828054620004779062002d98565b8015620004c85780601f106200049c57610100808354040283529160200191620004c8565b820191906000526020600020905b815481529060010190602001808311620004aa57829003601f168201915b50505050508152602001600282015481526020016003820160009054906101000a900461ffff1661ffff1661ffff1681526020016003820160029054906101000a900461ffff1661ffff1661ffff16815260200160048201805480602002602001604051908101604052809291908181526020018280548015620005a257602002820191906000526020600020905b8160009054906101000a900473ffffffffffffffffffffffffffffffffffffffff1673ffffffffffffffffffffffffffffffffffffffff168152602001906001019080831162000557575b50505050508152505090508060a00151915050919050565b6000600160003373ffffffffffffffffffffffffffffffffffffffff1673ffffffffffffffffffffffffffffffffffffffff1681526020019081526020016000206040518060c00160405290816000820160009054906101000a900473ffffffffffffffffffffffffffffffffffffffff1673ffffffffffffffffffffffffffffffffffffffff1673ffffffffffffffffffffffffffffffffffffffff1681526020016001820180546200066e9062002d98565b80601f01602080910402602001604051908101604052809291908181526020018280546200069c9062002d98565b8015620006ed5780601f10620006c157610100808354040283529160200191620006ed565b820191906000526020600020905b815481529060010190602001808311620006cf57829003601f168201915b50505050508152602001600282015481526020016003820160009054906101000a900461ffff1661ffff1661ffff1681526020016003820160029054906101000a900461ffff1661ffff1661ffff16815260200160048201805480602002602001604051908101604052809291908181526020018280548015620007c757602002820191906000526020600020905b8160009054906101000a900473ffffffffffffffffffffffffffffffffffffffff1673ffffffffffffffffffffffffffffffffffffffff16815260200190600101908083116200077c575b50505050508152505090508060a001518261ffff1681518110620007f057620007ef62002dce565b5b602002602001015173ffffffffffffffffffffffffffffffffffffffff1663e41d7f11336040518263ffffffff1660e01b815260040162000832919062002dfd565b600060405180830381600087803b1580156200084d57600080fd5b505af115801562000862573d6000803e3d6000fd5b505050505050565b60606000600160008573ffffffffffffffffffffffffffffffffffffffff1673ffffffffffffffffffffffffffffffffffffffff1681526020019081526020016000206040518060c00160405290816000820160009054906101000a900473ffffffffffffffffffffffffffffffffffffffff1673ffffffffffffffffffffffffffffffffffffffff1673ffffffffffffffffffffffffffffffffffffffff168152602001600182018054620009209062002d98565b80601f01602080910402602001604051908101604052809291908181526020018280546200094e9062002d98565b80156200099f5780601f1062000973576101008083540402835291602001916200099f565b820191906000526020600020905b8154815290600101906020018083116200098157829003601f168201915b50505050508152602001600282015481526020016003820160009054906101000a900461ffff1661ffff1661ffff1681526020016003820160029054906101000a900461ffff1661ffff1661ffff1681526020016004820180548060200260200160405190810160405280929190818152602001828054801562000a7957602002820191906000526020600020905b8160009054906101000a900473ffffffffffffffffffffffffffffffffffffffff1673ffffffffffffffffffffffffffffffffffffffff168152602001906001019080831162000a2e575b505050505081525050905060008160a001518461ffff168151811062000aa45762000aa362002dce565b5b602002602001015173ffffffffffffffffffffffffffffffffffffffff1663f39b448d6040518163ffffffff1660e01b8152600401600060405180830381865afa15801562000af7573d6000803e3d6000fd5b505050506040513d6000823e3d601f19601f8201168201806040525081019062000b22919062002f0c565b9050809250505092915050565b6000600160003373ffffffffffffffffffffffffffffffffffffffff1673ffffffffffffffffffffffffffffffffffffffff1681526020019081526020016000206040518060c00160405290816000820160009054906101000a900473ffffffffffffffffffffffffffffffffffffffff1673ffffffffffffffffffffffffffffffffffffffff1673ffffffffffffffffffffffffffffffffffffffff16815260200160018201805462000be39062002d98565b80601f016020809104026020016040519081016040528092919081815260200182805462000c119062002d98565b801562000c625780601f1062000c365761010080835404028352916020019162000c62565b820191906000526020600020905b81548152906001019060200180831162000c4457829003601f168201915b50505050508152602001600282015481526020016003820160009054906101000a900461ffff1661ffff1661ffff1681526020016003820160029054906101000a900461ffff1661ffff1661ffff1681526020016004820180548060200260200160405190810160405280929190818152602001828054801562000d3c57602002820191906000526020600020905b8160009054906101000a900473ffffffffffffffffffffffffffffffffffffffff1673ffffffffffffffffffffffffffffffffffffffff168152602001906001019080831162000cf1575b50505050508152505090508060a001518261ffff168151811062000d655762000d6462002dce565b5b602002602001015173ffffffffffffffffffffffffffffffffffffffff16634dc8217b6040518163ffffffff1660e01b8152600401600060405180830381600087803b15801562000db557600080fd5b505af115801562000dca573d6000803e3d6000fd5b505050505050565b62000ddc62001eb2565b6000600160008573ffffffffffffffffffffffffffffffffffffffff1673ffffffffffffffffffffffffffffffffffffffff1681526020019081526020016000206040518060c00160405290816000820160009054906101000a900473ffffffffffffffffffffffffffffffffffffffff1673ffffffffffffffffffffffffffffffffffffffff1673ffffffffffffffffffffffffffffffffffffffff16815260200160018201805462000e909062002d98565b80601f016020809104026020016040519081016040528092919081815260200182805462000ebe9062002d98565b801562000f0f5780601f1062000ee35761010080835404028352916020019162000f0f565b820191906000526020600020905b81548152906001019060200180831162000ef157829003601f168201915b50505050508152602001600282015481526020016003820160009054906101000a900461ffff1661ffff1661ffff1681526020016003820160029054906101000a900461ffff1661ffff1661ffff1681526020016004820180548060200260200160405190810160405280929190818152602001828054801562000fe957602002820191906000526020600020905b8160009054906101000a900473ffffffffffffffffffffffffffffffffffffffff1673ffffffffffffffffffffffffffffffffffffffff168152602001906001019080831162000f9e575b505050505081525050905060008160a001518461ffff168151811062001014576200101362002dce565b5b602002602001015173ffffffffffffffffffffffffffffffffffffffff1663d11d6b956040518163ffffffff1660e01b8152600401600060405180830381865afa15801562001067573d6000803e3d6000fd5b505050506040513d6000823e3d601f19601f8201168201806040525081019062001092919062003122565b9050809250505092915050565b600360009054906101000a900460ff1681565b6000600160003373ffffffffffffffffffffffffffffffffffffffff1673ffffffffffffffffffffffffffffffffffffffff168152602001908152602001600020905080600301600281819054906101000a900461ffff16809291906200111990620031a2565b91906101000a81548161ffff021916908361ffff1602179055505060008160030160029054906101000a900461ffff1684336000866040516200115c9062001f29565b6200116c95949392919062003226565b604051809103906000f08015801562001189573d6000803e3d6000fd5b50905081600401819080600181540180825580915050600190039060005260206000200160009091909190916101000a81548173ffffffffffffffffffffffffffffffffffffffff021916908373ffffffffffffffffffffffffffffffffffffffff16021790555050505050565b6000600160008473ffffffffffffffffffffffffffffffffffffffff1673ffffffffffffffffffffffffffffffffffffffff1681526020019081526020016000206040518060c00160405290816000820160009054906101000a900473ffffffffffffffffffffffffffffffffffffffff1673ffffffffffffffffffffffffffffffffffffffff1673ffffffffffffffffffffffffffffffffffffffff168152602001600182018054620012ab9062002d98565b80601f0160208091040260200160405190810160405280929190818152602001828054620012d99062002d98565b80156200132a5780601f10620012fe576101008083540402835291602001916200132a565b820191906000526020600020905b8154815290600101906020018083116200130c57829003601f168201915b50505050508152602001600282015481526020016003820160009054906101000a900461ffff1661ffff1661ffff1681526020016003820160029054906101000a900461ffff1661ffff1661ffff168152602001600482018054806020026020016040519081016040528092919081815260200182805480156200140457602002820191906000526020600020905b8160009054906101000a900473ffffffffffffffffffffffffffffffffffffffff1673ffffffffffffffffffffffffffffffffffffffff1681526020019060010190808311620013b9575b505050505081525050905060008160a001518361ffff16815181106200142f576200142e62002dce565b5b602002602001015173ffffffffffffffffffffffffffffffffffffffff166355a4cadc6040518163ffffffff1660e01b8152600401600060405180830381865afa15801562001482573d6000803e3d6000fd5b505050506040513d6000823e3d601f19601f82011682018060405250810190620014ad91906200328a565b9550505050505060006001811115620014cb57620014ca620025a2565b5b816001811115620014e157620014e0620025a2565b5b1462001524576040517f08c379a00000000000000000000000000000000000000000000000000000000081526004016200151b9062003395565b60405180910390fd5b6000808360a001518561ffff168151811062001545576200154462002dce565b5b602002602001015173ffffffffffffffffffffffffffffffffffffffff16346040516200157290620033ec565b60006040518083038185875af1925050503d8060008114620015b1576040519150601f19603f3d011682016040523d82523d6000602084013e620015b6565b606091505b50915091508360a001518561ffff1681518110620015d957620015d862002dce565b5b602002602001015173ffffffffffffffffffffffffffffffffffffffff166358be6cd334336040518363ffffffff1660e01b81526004016200161d92919062003403565b600060405180830381600087803b1580156200163857600080fd5b505af11580156200164d573d6000803e3d6000fd5b50505050505050505050565b6000600160003373ffffffffffffffffffffffffffffffffffffffff1673ffffffffffffffffffffffffffffffffffffffff1681526020019081526020016000209050338160000160006101000a81548173ffffffffffffffffffffffffffffffffffffffff021916908373ffffffffffffffffffffffffffffffffffffffff16021790555081816001019080519060200190620016f992919062001f37565b5060008054906101000a900461ffff168160030160006101000a81548161ffff021916908361ffff16021790555060008081819054906101000a900461ffff16809291906200174890620031a2565b91906101000a81548161ffff021916908361ffff160217905550506000816002018190555060028190806001815401808255809150506001900390600052602060002090600502016000909190919091506000820160009054906101000a900473ffffffffffffffffffffffffffffffffffffffff168160000160006101000a81548173ffffffffffffffffffffffffffffffffffffffff021916908373ffffffffffffffffffffffffffffffffffffffff1602179055506001820181600101908054620018169062002d98565b6200182392919062001fc8565b50600282015481600201556003820160009054906101000a900461ffff168160030160006101000a81548161ffff021916908361ffff1602179055506003820160029054906101000a900461ffff168160030160026101000a81548161ffff021916908361ffff1602179055506004820181600401908054620018a892919062002060565b5050505050565b60606000600160008573ffffffffffffffffffffffffffffffffffffffff1673ffffffffffffffffffffffffffffffffffffffff1681526020019081526020016000206040518060c00160405290816000820160009054906101000a900473ffffffffffffffffffffffffffffffffffffffff1673ffffffffffffffffffffffffffffffffffffffff1673ffffffffffffffffffffffffffffffffffffffff168152602001600182018054620019659062002d98565b80601f0160208091040260200160405190810160405280929190818152602001828054620019939062002d98565b8015620019e45780601f10620019b857610100808354040283529160200191620019e4565b820191906000526020600020905b815481529060010190602001808311620019c657829003601f168201915b50505050508152602001600282015481526020016003820160009054906101000a900461ffff1661ffff1661ffff1681526020016003820160029054906101000a900461ffff1661ffff1661ffff1681526020016004820180548060200260200160405190810160405280929190818152602001828054801562001abe57602002820191906000526020600020905b8160009054906101000a900473ffffffffffffffffffffffffffffffffffffffff1673ffffffffffffffffffffffffffffffffffffffff168152602001906001019080831162001a73575b505050505081525050905060008160a001518461ffff168151811062001ae95762001ae862002dce565b5b602002602001015173ffffffffffffffffffffffffffffffffffffffff16631b822f726040518163ffffffff1660e01b8152600401600060405180830381865afa15801562001b3c573d6000803e3d6000fd5b505050506040513d6000823e3d601f19601f8201168201806040525081019062001b67919062003506565b9050809250505092915050565b6002818154811062001b8557600080fd5b90600052602060002090600502016000915090508060000160009054906101000a900473ffffffffffffffffffffffffffffffffffffffff169080600101805462001bd09062002d98565b80601f016020809104026020016040519081016040528092919081815260200182805462001bfe9062002d98565b801562001c4f5780601f1062001c235761010080835404028352916020019162001c4f565b820191906000526020600020905b81548152906001019060200180831162001c3157829003601f168201915b5050505050908060020154908060030160009054906101000a900461ffff16908060030160029054906101000a900461ffff16905085565b60606002805480602002602001604051908101604052809291908181526020016000905b8282101562001ea957838290600052602060002090600502016040518060c00160405290816000820160009054906101000a900473ffffffffffffffffffffffffffffffffffffffff1673ffffffffffffffffffffffffffffffffffffffff1673ffffffffffffffffffffffffffffffffffffffff16815260200160018201805462001d379062002d98565b80601f016020809104026020016040519081016040528092919081815260200182805462001d659062002d98565b801562001db65780601f1062001d8a5761010080835404028352916020019162001db6565b820191906000526020600020905b81548152906001019060200180831162001d9857829003601f168201915b50505050508152602001600282015481526020016003820160009054906101000a900461ffff1661ffff1661ffff1681526020016003820160029054906101000a900461ffff1661ffff1661ffff1681526020016004820180548060200260200160405190810160405280929190818152602001828054801562001e9057602002820191906000526020600020905b8160009054906101000a900473ffffffffffffffffffffffffffffffffffffffff1673ffffffffffffffffffffffffffffffffffffffff168152602001906001019080831162001e45575b5050505050815250508152602001906001019062001cab565b50505050905090565b6040518060c00160405280600061ffff16815260200160608152602001600073ffffffffffffffffffffffffffffffffffffffff1681526020016000815260200160006fffffffffffffffffffffffffffffffff1681526020016000600181111562001f235762001f22620025a2565b5b81525090565b6114d3806200355883390190565b82805462001f459062002d98565b90600052602060002090601f01602090048101928262001f69576000855562001fb5565b82601f1062001f8457805160ff191683800117855562001fb5565b8280016001018555821562001fb5579182015b8281111562001fb457825182559160200191906001019062001f97565b5b50905062001fc49190620020b7565b5090565b82805462001fd69062002d98565b90600052602060002090601f01602090048101928262001ffa57600085556200204d565b82601f106200200d57805485556200204d565b828001600101855582156200204d57600052602060002091601f016020900482015b828111156200204c5782548255916001019190600101906200202f565b5b5090506200205c9190620020b7565b5090565b828054828255906000526020600020908101928215620020a45760005260206000209182015b82811115620020a357825482559160010191906001019062002086565b5b509050620020b39190620020b7565b5090565b5b80821115620020d2576000816000905550600101620020b8565b5090565b6000819050919050565b620020eb81620020d6565b82525050565b6000602082019050620021086000830184620020e0565b92915050565b6000604051905090565b600080fd5b600080fd5b600073ffffffffffffffffffffffffffffffffffffffff82169050919050565b60006200214f8262002122565b9050919050565b620021618162002142565b81146200216d57600080fd5b50565b600081359050620021818162002156565b92915050565b600060208284031215620021a0576200219f62002118565b5b6000620021b08482850162002170565b91505092915050565b600081519050919050565b600082825260208201905092915050565b6000819050602082019050919050565b6000819050919050565b6000620022106200220a620022048462002122565b620021e5565b62002122565b9050919050565b60006200222482620021ef565b9050919050565b6000620022388262002217565b9050919050565b6200224a816200222b565b82525050565b60006200225e83836200223f565b60208301905092915050565b6000602082019050919050565b60006200228482620021b9565b620022908185620021c4565b93506200229d83620021d5565b8060005b83811015620022d4578151620022b8888262002250565b9750620022c5836200226a565b925050600181019050620022a1565b5085935050505092915050565b60006020820190508181036000830152620022fd818462002277565b905092915050565b600061ffff82169050919050565b6200231e8162002305565b81146200232a57600080fd5b50565b6000813590506200233e8162002313565b92915050565b6000602082840312156200235d576200235c62002118565b5b60006200236d848285016200232d565b91505092915050565b6000806040838503121562002390576200238f62002118565b5b6000620023a08582860162002170565b9250506020620023b3858286016200232d565b9150509250929050565b600081519050919050565b600082825260208201905092915050565b6000819050602082019050919050565b620023f48162002142565b82525050565b6000620024088383620023e9565b60208301905092915050565b6000602082019050919050565b60006200242e82620023bd565b6200243a8185620023c8565b93506200244783620023d9565b8060005b838110156200247e578151620024628882620023fa565b97506200246f8362002414565b9250506001810190506200244b565b5085935050505092915050565b60006020820190508181036000830152620024a7818462002421565b905092915050565b620024ba8162002305565b82525050565b600081519050919050565b600082825260208201905092915050565b60005b83811015620024fc578082015181840152602081019050620024df565b838111156200250c576000848401525b50505050565b6000601f19601f8301169050919050565b60006200253082620024c0565b6200253c8185620024cb565b93506200254e818560208601620024dc565b620025598162002512565b840191505092915050565b6200256f81620020d6565b82525050565b60006fffffffffffffffffffffffffffffffff82169050919050565b6200259c8162002575565b82525050565b7f4e487b7100000000000000000000000000000000000000000000000000000000600052602160045260246000fd5b60028110620025e557620025e4620025a2565b5b50565b6000819050620025f882620025d1565b919050565b60006200260a82620025e8565b9050919050565b6200261c81620025fd565b82525050565b600060c0830160008301516200263c6000860182620024af565b506020830151848203602086015262002656828262002523565b91505060408301516200266d6040860182620023e9565b50606083015162002682606086018262002564565b50608083015162002697608086018262002591565b5060a0830151620026ac60a086018262002611565b508091505092915050565b60006020820190508181036000830152620026d3818462002622565b905092915050565b620026e681620025fd565b82525050565b6000602082019050620027036000830184620026db565b92915050565b600080fd5b600080fd5b7f4e487b7100000000000000000000000000000000000000000000000000000000600052604160045260246000fd5b6200274d8262002512565b810181811067ffffffffffffffff821117156200276f576200276e62002713565b5b80604052505050565b6000620027846200210e565b905062002792828262002742565b919050565b600067ffffffffffffffff821115620027b557620027b462002713565b5b620027c08262002512565b9050602081019050919050565b82818337600083830152505050565b6000620027f3620027ed8462002797565b62002778565b9050828152602081018484840111156200281257620028116200270e565b5b6200281f848285620027cd565b509392505050565b600082601f8301126200283f576200283e62002709565b5b813562002851848260208601620027dc565b91505092915050565b620028658162002575565b81146200287157600080fd5b50565b60008135905062002885816200285a565b92915050565b60008060408385031215620028a557620028a462002118565b5b600083013567ffffffffffffffff811115620028c657620028c56200211d565b5b620028d48582860162002827565b9250506020620028e78582860162002874565b9150509250929050565b6000602082840312156200290a576200290962002118565b5b600082013567ffffffffffffffff8111156200292b576200292a6200211d565b5b620029398482850162002827565b91505092915050565b600081519050919050565b600082825260208201905092915050565b6000819050602082019050919050565b60006200297c838362002564565b60208301905092915050565b6000602082019050919050565b6000620029a28262002942565b620029ae81856200294d565b9350620029bb836200295e565b8060005b83811015620029f2578151620029d688826200296e565b9750620029e38362002988565b925050600181019050620029bf565b5085935050505092915050565b6000602082019050818103600083015262002a1b818462002995565b905092915050565b62002a2e81620020d6565b811462002a3a57600080fd5b50565b60008135905062002a4e8162002a23565b92915050565b60006020828403121562002a6d5762002a6c62002118565b5b600062002a7d8482850162002a3d565b91505092915050565b62002a918162002142565b82525050565b600082825260208201905092915050565b600062002ab582620024c0565b62002ac1818562002a97565b935062002ad3818560208601620024dc565b62002ade8162002512565b840191505092915050565b62002af48162002305565b82525050565b600060a08201905062002b11600083018862002a86565b818103602083015262002b25818762002aa8565b905062002b366040830186620020e0565b62002b45606083018562002ae9565b62002b54608083018462002ae9565b9695505050505050565b600081519050919050565b600082825260208201905092915050565b6000819050602082019050919050565b600082825260208201905092915050565b600062002ba882620021b9565b62002bb4818562002b8a565b935062002bc183620021d5565b8060005b8381101562002bf857815162002bdc888262002250565b975062002be9836200226a565b92505060018101905062002bc5565b5085935050505092915050565b600060c08301600083015162002c1f6000860182620023e9565b506020830151848203602086015262002c39828262002523565b915050604083015162002c50604086018262002564565b50606083015162002c656060860182620024af565b50608083015162002c7a6080860182620024af565b5060a083015184820360a086015262002c94828262002b9b565b9150508091505092915050565b600062002caf838362002c05565b905092915050565b6000602082019050919050565b600062002cd18262002b5e565b62002cdd818562002b69565b93508360208202850162002cf18562002b7a565b8060005b8581101562002d33578484038952815162002d11858262002ca1565b945062002d1e8362002cb7565b925060208a0199505060018101905062002cf5565b50829750879550505050505092915050565b6000602082019050818103600083015262002d61818462002cc4565b905092915050565b7f4e487b7100000000000000000000000000000000000000000000000000000000600052602260045260246000fd5b6000600282049050600182168062002db157607f821691505b6020821081141562002dc85762002dc762002d69565b5b50919050565b7f4e487b7100000000000000000000000000000000000000000000000000000000600052603260045260246000fd5b600060208201905062002e14600083018462002a86565b92915050565b600067ffffffffffffffff82111562002e385762002e3762002713565b5b602082029050602081019050919050565b600080fd5b60008151905062002e5f8162002156565b92915050565b600062002e7c62002e768462002e1a565b62002778565b9050808382526020820190506020840283018581111562002ea25762002ea162002e49565b5b835b8181101562002ecf578062002eba888262002e4e565b84526020840193505060208101905062002ea4565b5050509392505050565b600082601f83011262002ef15762002ef062002709565b5b815162002f0384826020860162002e65565b91505092915050565b60006020828403121562002f255762002f2462002118565b5b600082015167ffffffffffffffff81111562002f465762002f456200211d565b5b62002f548482850162002ed9565b91505092915050565b600080fd5b600080fd5b60008151905062002f788162002313565b92915050565b600062002f9562002f8f8462002797565b62002778565b90508281526020810184848401111562002fb45762002fb36200270e565b5b62002fc1848285620024dc565b509392505050565b600082601f83011262002fe15762002fe062002709565b5b815162002ff384826020860162002f7e565b91505092915050565b6000815190506200300d8162002a23565b92915050565b60008151905062003024816200285a565b92915050565b600281106200303857600080fd5b50565b6000815190506200304c816200302a565b92915050565b600060c082840312156200306b576200306a62002f5d565b5b6200307760c062002778565b90506000620030898482850162002f67565b600083015250602082015167ffffffffffffffff811115620030b057620030af62002f62565b5b620030be8482850162002fc9565b6020830152506040620030d48482850162002e4e565b6040830152506060620030ea8482850162002ffc565b6060830152506080620031008482850162003013565b60808301525060a062003116848285016200303b565b60a08301525092915050565b6000602082840312156200313b576200313a62002118565b5b600082015167ffffffffffffffff8111156200315c576200315b6200211d565b5b6200316a8482850162003052565b91505092915050565b7f4e487b7100000000000000000000000000000000000000000000000000000000600052601160045260246000fd5b6000620031af8262002305565b915061ffff821415620031c757620031c662003173565b5b600182019050919050565b6000819050919050565b6000620031fd620031f7620031f184620031d2565b620021e5565b620020d6565b9050919050565b6200320f81620031dc565b82525050565b620032208162002575565b82525050565b600060a0820190506200323d600083018862002ae9565b818103602083015262003251818762002aa8565b905062003262604083018662002a86565b62003271606083018562003204565b62003280608083018462003215565b9695505050505050565b60008060008060008060c08789031215620032aa57620032a962002118565b5b6000620032ba89828a0162002f67565b965050602087015167ffffffffffffffff811115620032de57620032dd6200211d565b5b620032ec89828a0162002fc9565b9550506040620032ff89828a0162002e4e565b94505060606200331289828a0162002ffc565b93505060806200332589828a0162003013565b92505060a06200333889828a016200303b565b9150509295509295509295565b7f50726f6a65746f2066696e616c697a61646f0000000000000000000000000000600082015250565b60006200337d60128362002a97565b91506200338a8262003345565b602082019050919050565b60006020820190508181036000830152620033b0816200336e565b9050919050565b600081905092915050565b50565b6000620033d4600083620033b7565b9150620033e182620033c2565b600082019050919050565b6000620033f982620033c5565b9150819050919050565b60006040820190506200341a6000830185620020e0565b62003429602083018462002a86565b9392505050565b600067ffffffffffffffff8211156200344e576200344d62002713565b5b602082029050602081019050919050565b600062003476620034708462003430565b62002778565b905080838252602082019050602084028301858111156200349c576200349b62002e49565b5b835b81811015620034c95780620034b4888262002ffc565b8452602084019350506020810190506200349e565b5050509392505050565b600082601f830112620034eb57620034ea62002709565b5b8151620034fd8482602086016200345f565b91505092915050565b6000602082840312156200351f576200351e62002118565b5b600082015167ffffffffffffffff81111562003540576200353f6200211d565b5b6200354e84828501620034d3565b9150509291505056fe60806040523480156200001157600080fd5b50604051620014d3380380620014d3833981810160405281019062000037919062000480565b846000800160006101000a81548161ffff021916908361ffff16021790555083600060010190805190602001906200007192919062000107565b5082600060020160006101000a81548173ffffffffffffffffffffffffffffffffffffffff021916908373ffffffffffffffffffffffffffffffffffffffff1602179055508160006003018190555080600060040160006101000a8154816fffffffffffffffffffffffffffffffff02191690836fffffffffffffffffffffffffffffffff16021790555050505050506200058c565b828054620001159062000556565b90600052602060002090601f01602090048101928262000139576000855562000185565b82601f106200015457805160ff191683800117855562000185565b8280016001018555821562000185579182015b828111156200018457825182559160200191906001019062000167565b5b50905062000194919062000198565b5090565b5b80821115620001b357600081600090555060010162000199565b5090565b6000604051905090565b600080fd5b600080fd5b600061ffff82169050919050565b620001e481620001cb565b8114620001f057600080fd5b50565b6000815190506200020481620001d9565b92915050565b600080fd5b600080fd5b6000601f19601f8301169050919050565b7f4e487b7100000000000000000000000000000000000000000000000000000000600052604160045260246000fd5b6200025f8262000214565b810181811067ffffffffffffffff8211171562000281576200028062000225565b5b80604052505050565b600062000296620001b7565b9050620002a4828262000254565b919050565b600067ffffffffffffffff821115620002c757620002c662000225565b5b620002d28262000214565b9050602081019050919050565b60005b83811015620002ff578082015181840152602081019050620002e2565b838111156200030f576000848401525b50505050565b60006200032c6200032684620002a9565b6200028a565b9050828152602081018484840111156200034b576200034a6200020f565b5b62000358848285620002df565b509392505050565b600082601f8301126200037857620003776200020a565b5b81516200038a84826020860162000315565b91505092915050565b600073ffffffffffffffffffffffffffffffffffffffff82169050919050565b6000620003c08262000393565b9050919050565b620003d281620003b3565b8114620003de57600080fd5b50565b600081519050620003f281620003c7565b92915050565b6000819050919050565b6200040d81620003f8565b81146200041957600080fd5b50565b6000815190506200042d8162000402565b92915050565b60006fffffffffffffffffffffffffffffffff82169050919050565b6200045a8162000433565b81146200046657600080fd5b50565b6000815190506200047a816200044f565b92915050565b600080600080600060a086880312156200049f576200049e620001c1565b5b6000620004af88828901620001f3565b955050602086015167ffffffffffffffff811115620004d357620004d2620001c6565b5b620004e18882890162000360565b9450506040620004f488828901620003e1565b935050606062000507888289016200041c565b92505060806200051a8882890162000469565b9150509295509295909350565b7f4e487b7100000000000000000000000000000000000000000000000000000000600052602260045260246000fd5b600060028204905060018216806200056f57607f821691505b6020821081141562000586576200058562000527565b5b50919050565b610f37806200059c6000396000f3fe6080604052600436106100745760003560e01c806358be6cd31161004e57806358be6cd3146100ef578063d11d6b9514610118578063e41d7f1114610143578063f39b448d1461015f5761007b565b80631b822f721461007d5780634dc8217b146100a857806355a4cadc146100bf5761007b565b3661007b57005b005b34801561008957600080fd5b5061009261018a565b60405161009f91906108f0565b60405180910390f35b3480156100b457600080fd5b506100bd6101e2565b005b3480156100cb57600080fd5b506100d4610256565b6040516100e696959493929190610aba565b60405180910390f35b3480156100fb57600080fd5b5061011660048036038101906101119190610b7f565b61035f565b005b34801561012457600080fd5b5061012d6103f9565b60405161013a9190610cce565b60405180910390f35b61015d60048036038101906101589190610cf0565b6105aa565b005b34801561016b57600080fd5b50610174610726565b6040516101819190610dcc565b60405180910390f35b606060068054806020026020016040519081016040528092919081815260200182805480156101d857602002820191906000526020600020905b8154815260200190600101908083116101c4575b5050505050905090565b60008060040160109054906101000a900460ff16600181111561020857610207610a43565b5b81600181111561021b5761021a610a43565b5b1461022557600080fd5b6001600060040160106101000a81548160ff0219169083600181111561024e5761024d610a43565b5b021790555050565b60008060000160009054906101000a900461ffff169080600101805461027b90610e1d565b80601f01602080910402602001604051908101604052809291908181526020018280546102a790610e1d565b80156102f45780601f106102c9576101008083540402835291602001916102f4565b820191906000526020600020905b8154815290600101906020018083116102d757829003601f168201915b5050505050908060020160009054906101000a900473ffffffffffffffffffffffffffffffffffffffff16908060030154908060040160009054906101000a90046fffffffffffffffffffffffffffffffff16908060040160109054906101000a900460ff16905086565b476000600301819055506005819080600181540180825580915050600190039060005260206000200160009091909190916101000a81548173ffffffffffffffffffffffffffffffffffffffff021916908373ffffffffffffffffffffffffffffffffffffffff16021790555060068290806001815401808255809150506001900390600052602060002001600090919091909150555050565b6104016107b4565b60006040518060c00160405290816000820160009054906101000a900461ffff1661ffff1661ffff16815260200160018201805461043e90610e1d565b80601f016020809104026020016040519081016040528092919081815260200182805461046a90610e1d565b80156104b75780601f1061048c576101008083540402835291602001916104b7565b820191906000526020600020905b81548152906001019060200180831161049a57829003601f168201915b505050505081526020016002820160009054906101000a900473ffffffffffffffffffffffffffffffffffffffff1673ffffffffffffffffffffffffffffffffffffffff1673ffffffffffffffffffffffffffffffffffffffff168152602001600382015481526020016004820160009054906101000a90046fffffffffffffffffffffffffffffffff166fffffffffffffffffffffffffffffffff166fffffffffffffffffffffffffffffffff1681526020016004820160109054906101000a900460ff16600181111561058f5761058e610a43565b5b60018111156105a1576105a0610a43565b5b81525050905090565b80600060020160009054906101000a900473ffffffffffffffffffffffffffffffffffffffff1673ffffffffffffffffffffffffffffffffffffffff168173ffffffffffffffffffffffffffffffffffffffff161461063e576040517f08c379a000000000000000000000000000000000000000000000000000000000815260040161063590610e9b565b60405180910390fd5b6001600060040160109054906101000a900460ff16600181111561066557610664610a43565b5b81600181111561067857610677610a43565b5b1461068257600080fd5b600080600060020160009054906101000a900473ffffffffffffffffffffffffffffffffffffffff1673ffffffffffffffffffffffffffffffffffffffff16476040516106ce90610eec565b60006040518083038185875af1925050503d806000811461070b576040519150601f19603f3d011682016040523d82523d6000602084013e610710565b606091505b5091509150476000600301819055505050505050565b606060058054806020026020016040519081016040528092919081815260200182805480156107aa57602002820191906000526020600020905b8160009054906101000a900473ffffffffffffffffffffffffffffffffffffffff1673ffffffffffffffffffffffffffffffffffffffff1681526020019060010190808311610760575b5050505050905090565b6040518060c00160405280600061ffff16815260200160608152602001600073ffffffffffffffffffffffffffffffffffffffff1681526020016000815260200160006fffffffffffffffffffffffffffffffff1681526020016000600181111561082257610821610a43565b5b81525090565b600081519050919050565b600082825260208201905092915050565b6000819050602082019050919050565b6000819050919050565b61086781610854565b82525050565b6000610879838361085e565b60208301905092915050565b6000602082019050919050565b600061089d82610828565b6108a78185610833565b93506108b283610844565b8060005b838110156108e35781516108ca888261086d565b97506108d583610885565b9250506001810190506108b6565b5085935050505092915050565b6000602082019050818103600083015261090a8184610892565b905092915050565b600061ffff82169050919050565b61092981610912565b82525050565b600081519050919050565b600082825260208201905092915050565b60005b8381101561096957808201518184015260208101905061094e565b83811115610978576000848401525b50505050565b6000601f19601f8301169050919050565b600061099a8261092f565b6109a4818561093a565b93506109b481856020860161094b565b6109bd8161097e565b840191505092915050565b600073ffffffffffffffffffffffffffffffffffffffff82169050919050565b60006109f3826109c8565b9050919050565b610a03816109e8565b82525050565b610a1281610854565b82525050565b60006fffffffffffffffffffffffffffffffff82169050919050565b610a3d81610a18565b82525050565b7f4e487b7100000000000000000000000000000000000000000000000000000000600052602160045260246000fd5b60028110610a8357610a82610a43565b5b50565b6000819050610a9482610a72565b919050565b6000610aa482610a86565b9050919050565b610ab481610a99565b82525050565b600060c082019050610acf6000830189610920565b8181036020830152610ae1818861098f565b9050610af060408301876109fa565b610afd6060830186610a09565b610b0a6080830185610a34565b610b1760a0830184610aab565b979650505050505050565b600080fd5b610b3081610854565b8114610b3b57600080fd5b50565b600081359050610b4d81610b27565b92915050565b610b5c816109e8565b8114610b6757600080fd5b50565b600081359050610b7981610b53565b92915050565b60008060408385031215610b9657610b95610b22565b5b6000610ba485828601610b3e565b9250506020610bb585828601610b6a565b9150509250929050565b610bc881610912565b82525050565b600082825260208201905092915050565b6000610bea8261092f565b610bf48185610bce565b9350610c0481856020860161094b565b610c0d8161097e565b840191505092915050565b610c21816109e8565b82525050565b610c3081610a18565b82525050565b610c3f81610a99565b82525050565b600060c083016000830151610c5d6000860182610bbf565b5060208301518482036020860152610c758282610bdf565b9150506040830151610c8a6040860182610c18565b506060830151610c9d606086018261085e565b506080830151610cb06080860182610c27565b5060a0830151610cc360a0860182610c36565b508091505092915050565b60006020820190508181036000830152610ce88184610c45565b905092915050565b600060208284031215610d0657610d05610b22565b5b6000610d1484828501610b6a565b91505092915050565b600081519050919050565b600082825260208201905092915050565b6000819050602082019050919050565b6000610d558383610c18565b60208301905092915050565b6000602082019050919050565b6000610d7982610d1d565b610d838185610d28565b9350610d8e83610d39565b8060005b83811015610dbf578151610da68882610d49565b9750610db183610d61565b925050600181019050610d92565b5085935050505092915050565b60006020820190508181036000830152610de68184610d6e565b905092915050565b7f4e487b7100000000000000000000000000000000000000000000000000000000600052602260045260246000fd5b60006002820490506001821680610e3557607f821691505b60208210811415610e4957610e48610dee565b5b50919050565b7f4e6f7420617574686f72697a6564000000000000000000000000000000000000600082015250565b6000610e85600e8361093a565b9150610e9082610e4f565b602082019050919050565b60006020820190508181036000830152610eb481610e78565b9050919050565b600081905092915050565b50565b6000610ed6600083610ebb565b9150610ee182610ec6565b600082019050919050565b6000610ef782610ec9565b915081905091905056fea2646970667358221220b3ba7d6fbaf76a6f912386218199a3f198d5369fabf3afcbdbc14bfffb0b8b5a64736f6c634300080b0033a26469706673582212205c27d991d187db5b8784bf2928a180702d13b489c63b385db8b77cf41dc14eae64736f6c634300080b0033",
  "immutableReferences": {},
  "source": "// SPDX-License-Identifier: GPL-3.0\n\npragma solidity >=0.7.0 <0.9.0;\n\n//Deixar uma variavel constante fora de escopo dos contratos\n//permite ela ser acessivel a todos os contratos.\nstruct Projeto {\n  uint16 projetoID;\n  string projetoNome;\n  address responsavel;\n  uint256 saldo;\n  uint128 meta;\n  StatusProjeto status;\n}\n\nenum StatusProjeto {Aberto, Finalizado}\n\ncontract Donation {\n\n  uint16 ongsNumero;\n  mapping(address => ONG) ongs;\n  ONG[] public ongsLista;\n\n  StatusProjeto public statusProjeto;\n\n  modifier onlyStatus(StatusProjeto statusEsperado){ \n    if(statusEsperado == statusProjeto){_;} \n    else {revert(\"Ola\");}\n  }\n\n//  modifier onlyOwner(address _address){\n//    ONG memory o = ongs[msg.sender];\n//  }\n\n  struct ONG {\n    address owner;\n    string ongNome;\n    uint256 ongSaldo;\n    uint16 ongID;\n    uint16 projetosNumero;\n    contratoProjeto[] contratos;\n  }\n\n  function criarONG(string memory _ongNome) public  {\n    ONG storage o = ongs[msg.sender];\n    o.owner = msg.sender;\n    o.ongNome = _ongNome;\n    o.ongID = ongsNumero;\n    ongsNumero++;\n    o.ongSaldo = 0;\n    ongsLista.push(o);\n   }\n\n  function criarProjeto(string memory _projetoNome, uint128 _meta) public {   \n    //Throw revert automatically if caller hasn't an ONG\n    ONG storage o = ongs[msg.sender];\n    //Cheack Why this is no updating\n    o.projetosNumero++;\n    contratoProjeto novoProjeto = new contratoProjeto(o.projetosNumero, _projetoNome, msg.sender, 0, _meta);\n    o.contratos.push(novoProjeto);   \n   }\n\n    //function mudarResponsavel(address _novoResponsavel) public {\n    //IMPLEMENT LATER\n    //The easist and cheapest way of doing it is allowing only the ONG.owner to be\n    //changed, instead of looping through all the projects to change the owner.\n    //Thus, the project's owner will continue to be the old one, but the withdraw is\n    //only doable from the ONG.owner\n    //ONG storage o = ongs[msg.sender];\n    //o.owner = _novoResponsavel;\n    //}\n\n  function fazerDoacao(address _ongOwner, uint16 _projetoID) public payable {\n    //The project's address is dependent on the ONGs address and the projectID \n    ONG memory o = ongs[_ongOwner];\n    //Check if contract is finalizado, then revert if so!\n    (,,,,,StatusProjeto status) = o.contratos[_projetoID].projeto();\n    if(status != StatusProjeto.Aberto){revert(\"Projeto finalizado\");}\n    //https://solidity-by-example.org/sending-ether/\n    (bool sent, bytes memory data) = payable(address(o.contratos[_projetoID])).call{value: msg.value}(\"\");\n    o.contratos[_projetoID].projetoUpdate(msg.value, msg.sender);\n  }\n\n  function finalizarProjeto(uint16 _projetoID) public {\n    //Impossibilaremos de alguem usar este contrato para depositar no outro.\n    //Mas ainda sim o contrato permancera ativo, podendo receber transferencias\n    //diretamente. Nao apagaremos o endereco do contrato da lista de ONGs, pois \n    //alguem pode mandar ETH para o contrato 0x0...00.\n    ONG memory o = ongs[msg.sender];\n    o.contratos[_projetoID].projetoFinalizar();    \n  }\n\n  function sacarSaldo (uint16 _projetoID) public payable{\n    ONG memory o = ongs[msg.sender];\n    o.contratos[_projetoID].projetoSacar(msg.sender);   \n  }\n\n  function verONGs() public view returns(ONG[] memory) {\n    return ongsLista;\n  }\n\n  function verProjetos(address _address) public view returns(contratoProjeto[] memory){\n    ONG memory o = ongs[_address];\n    return o.contratos;\n  }\n\n  function verProjeto(address _address, uint16 _id) public view returns(Projeto memory ){\n    ONG memory o = ongs[_address];\n    Projeto memory con = o.contratos[_id].projetoVer();\n    return con;\n  }\n\n  function verDoadores(address _address, uint16 _id) public view returns(address[] memory ){\n    ONG memory o = ongs[_address];\n    address[] memory con = o.contratos[_id].projetoDoacoes();\n    return con;\n  }  \n\n  function verValores(address _address, uint16 _id) public view returns(uint256[] memory ){\n    ONG memory o = ongs[_address];\n    uint256[] memory con = o.contratos[_id].projetoValores();\n    return con;\n  }\n\n  function getBalance() public view returns (uint256) {\n    return address(this).balance;\n  }\n  \n  // function verProjetoOwner(){} \n\n}\n\ncontract contratoProjeto {\n  Projeto public projeto;\n  address[] doadores;\n  uint256[] valores;\n\n//  StatusProjeto projetoStatus;\n\n  modifier onlyOwner(address _owner){\n    require(_owner == projeto.responsavel, \"Not authorized\");\n    _;\n  }\n\n  modifier onlyStatus(StatusProjeto statusEsperado){ \n    require(statusEsperado == projeto.status);\n    _;     \n  }\n\n  constructor (\n    uint16 _projetoID, \n    string memory _projetoNome, \n    address _responsavel,\n    uint256 _saldo,\n    uint128 _meta\n    ){\n    projeto.projetoID = _projetoID;\n    projeto.projetoNome = _projetoNome;\n    projeto.responsavel = _responsavel;\n    projeto.saldo = _saldo;\n    projeto.meta = _meta;\n//    projetoStatus = StatusProjeto.Aberto;\n    }  \n  \n    function projetoVer() public view returns(Projeto memory) {\n      return projeto;\n    }\n\n    function projetoDoacoes() public view returns(address[] memory){\n      return doadores;\n    }\n\n    function projetoValores() public view returns(uint256[] memory){\n      return valores;\n    }\n\n    function projetoUpdate(uint256 _doacao, address _doador) public {\n      projeto.saldo = address(this).balance;\n      doadores.push(_doador);\n      valores.push(_doacao);\n    }\n\n    function projetoFinalizar() onlyStatus(StatusProjeto.Aberto) public {\n      projeto.status = StatusProjeto.Finalizado;\n    } \n\n    function projetoSacar(address _owner) onlyOwner(_owner) onlyStatus(StatusProjeto.Finalizado) public payable{\n    //Devemos restringir essa funcao? Pois, alguem pode doar depositar\n    //depois que o projeto estiver finalizado, mas tabem o dono pode sacar\n    //a qualquer momento\n      (bool sent, bytes memory data) = payable(projeto.responsavel).call{value: address(this).balance}(\"\");     \n      projeto.saldo = address(this).balance;\n    }\n\n    //https://solidity-by-example.org/sending-ether/\n    receive() external payable {}\n\n    //https://solidity-by-example.org/sending-ether/\n    fallback() external payable {}\n\n  }\n\n",
  "sourcePath": "/home/caiosa/ongs/truffle_area/contracts/Donation.sol",
  "compiler": {
    "name": "solc",
    "version": "0.8.11+commit.d7f03943.Emscripten.clang"
  },
  "schemaVersion": "3.4.4",
  "updatedAt": "2022-01-27T20:17:29.930Z",
  "networkType": "ethereum",
  "devdoc": {
    "kind": "dev",
    "methods": {},
    "version": 1
  },
  "userdoc": {
    "kind": "user",
    "methods": {},
    "version": 1
  }
}